{
  "_format": "hh-sol-artifact-1",
  "contractName": "AccessControl",
  "sourceName": "src/contracts/AccessControl.sol",
  "abi": [
    {
      "inputs": [],
      "stateMutability": "nonpayable",
      "type": "constructor"
    },
    {
      "inputs": [
        {
          "internalType": "string",
          "name": "",
          "type": "string"
        },
        {
          "internalType": "address",
          "name": "",
          "type": "address"
        }
      ],
      "name": "access",
      "outputs": [
        {
          "internalType": "bool",
          "name": "",
          "type": "bool"
        }
      ],
      "stateMutability": "view",
      "type": "function"
    },
    {
      "inputs": [
        {
          "internalType": "string",
          "name": "cid",
          "type": "string"
        },
        {
          "internalType": "address",
          "name": "user",
          "type": "address"
        }
      ],
      "name": "grantAccess",
      "outputs": [],
      "stateMutability": "nonpayable",
      "type": "function"
    },
    {
      "inputs": [
        {
          "internalType": "string",
          "name": "cid",
          "type": "string"
        },
        {
          "internalType": "address",
          "name": "user",
          "type": "address"
        }
      ],
      "name": "hasAccess",
      "outputs": [
        {
          "internalType": "bool",
          "name": "",
          "type": "bool"
        }
      ],
      "stateMutability": "view",
      "type": "function"
    },
    {
      "inputs": [],
      "name": "owner",
      "outputs": [
        {
          "internalType": "address",
          "name": "",
          "type": "address"
        }
      ],
      "stateMutability": "view",
      "type": "function"
    }
  ],
  "bytecode": "0x608060405234801561001057600080fd5b5033600160006101000a81548173ffffffffffffffffffffffffffffffffffffffff021916908373ffffffffffffffffffffffffffffffffffffffff160217905550610706806100616000396000f3fe608060405234801561001057600080fd5b506004361061004c5760003560e01c806313bd20e2146100515780638da5cb5b146100815780639b913c3e1461009f578063f37c215e146100cf575b600080fd5b61006b600480360381019061006691906103ad565b6100eb565b6040516100789190610428565b60405180910390f35b610089610160565b6040516100969190610452565b60405180910390f35b6100b960048036038101906100b491906105ae565b610186565b6040516100c69190610428565b60405180910390f35b6100e960048036038101906100e491906103ad565b6101cb565b005b60008084846040516100fe92919061063a565b908152602001604051809103902060008373ffffffffffffffffffffffffffffffffffffffff1673ffffffffffffffffffffffffffffffffffffffff16815260200190815260200160002060009054906101000a900460ff1690509392505050565b600160009054906101000a900473ffffffffffffffffffffffffffffffffffffffff1681565b6000828051602081018201805184825260208301602085012081835280955050505050506020528060005260406000206000915091509054906101000a900460ff1681565b600160009054906101000a900473ffffffffffffffffffffffffffffffffffffffff1673ffffffffffffffffffffffffffffffffffffffff163373ffffffffffffffffffffffffffffffffffffffff161461025b576040517f08c379a0000000000000000000000000000000000000000000000000000000008152600401610252906106b0565b60405180910390fd5b60016000848460405161026f92919061063a565b908152602001604051809103902060008373ffffffffffffffffffffffffffffffffffffffff1673ffffffffffffffffffffffffffffffffffffffff16815260200190815260200160002060006101000a81548160ff021916908315150217905550505050565b6000604051905090565b600080fd5b600080fd5b600080fd5b600080fd5b600080fd5b60008083601f84011261030f5761030e6102ea565b5b8235905067ffffffffffffffff81111561032c5761032b6102ef565b5b602083019150836001820283011115610348576103476102f4565b5b9250929050565b600073ffffffffffffffffffffffffffffffffffffffff82169050919050565b600061037a8261034f565b9050919050565b61038a8161036f565b811461039557600080fd5b50565b6000813590506103a781610381565b92915050565b6000806000604084860312156103c6576103c56102e0565b5b600084013567ffffffffffffffff8111156103e4576103e36102e5565b5b6103f0868287016102f9565b9350935050602061040386828701610398565b9150509250925092565b60008115159050919050565b6104228161040d565b82525050565b600060208201905061043d6000830184610419565b92915050565b61044c8161036f565b82525050565b60006020820190506104676000830184610443565b92915050565b600080fd5b6000601f19601f8301169050919050565b7f4e487b7100000000000000000000000000000000000000000000000000000000600052604160045260246000fd5b6104bb82610472565b810181811067ffffffffffffffff821117156104da576104d9610483565b5b80604052505050565b60006104ed6102d6565b90506104f982826104b2565b919050565b600067ffffffffffffffff82111561051957610518610483565b5b61052282610472565b9050602081019050919050565b82818337600083830152505050565b600061055161054c846104fe565b6104e3565b90508281526020810184848401111561056d5761056c61046d565b5b61057884828561052f565b509392505050565b600082601f830112610595576105946102ea565b5b81356105a584826020860161053e565b91505092915050565b600080604083850312156105c5576105c46102e0565b5b600083013567ffffffffffffffff8111156105e3576105e26102e5565b5b6105ef85828601610580565b925050602061060085828601610398565b9150509250929050565b600081905092915050565b6000610621838561060a565b935061062e83858461052f565b82840190509392505050565b6000610647828486610615565b91508190509392505050565b600082825260208201905092915050565b7f4f6e6c79206f776e65722063616e206772616e74000000000000000000000000600082015250565b600061069a601483610653565b91506106a582610664565b602082019050919050565b600060208201905081810360008301526106c98161068d565b905091905056fea26469706673582212201d03d815ec31275114a7cf602c0f8b9df57ef98216e3c5bcb1fd216ffa2f997f64736f6c63430008140033",
  "linkReferences": {},
  "deployedLinkReferences": {}
}